{"abi":[{"type":"constructor","inputs":[],"stateMutability":"nonpayable"},{"type":"function","name":"adminContract","inputs":[],"outputs":[{"name":"","type":"address","internalType":"address"}],"stateMutability":"view"},{"type":"function","name":"issueToken","inputs":[{"name":"_name","type":"string","internalType":"string"},{"name":"_symbol","type":"string","internalType":"string"},{"name":"_totalSupply","type":"uint256","internalType":"uint256"},{"name":"_to","type":"address","internalType":"address"}],"outputs":[{"name":"","type":"address","internalType":"address"}],"stateMutability":"nonpayable"},{"type":"function","name":"owner","inputs":[],"outputs":[{"name":"","type":"address","internalType":"address"}],"stateMutability":"view"},{"type":"function","name":"setAdminContract","inputs":[{"name":"_adminContract","type":"address","internalType":"address"}],"outputs":[],"stateMutability":"nonpayable"},{"type":"function","name":"token2Owner","inputs":[{"name":"","type":"address","internalType":"address"}],"outputs":[{"name":"","type":"address","internalType":"address"}],"stateMutability":"view"}],"bytecode":{"object":"0x608060405234801561001057600080fd5b50600080546001600160a01b031916331790556110c9806100326000396000f3fe60806040523480156200001157600080fd5b50600436106200005e5760003560e01c806363a812f914620000635780638da5cb5b146200007c578063c05c5e9414620000ac578063cbc227c914620000c0578063f1f2093114620000ec575b600080fd5b6200007a62000074366004620002b5565b62000103565b005b60005462000090906001600160a01b031681565b6040516001600160a01b03909116815260200160405180910390f35b60015462000090906001600160a01b031681565b62000090620000d1366004620002b5565b6002602052600090815260409020546001600160a01b031681565b62000090620000fd36600462000385565b6200018f565b6000546001600160a01b031633146200016d5760405162461bcd60e51b815260206004820152602160248201527f4f6e6c79206f776e65722063616e207365742061646d696e20636f6e747261636044820152601d60fa1b60648201526084015b60405180910390fd5b600180546001600160a01b0319166001600160a01b0392909216919091179055565b6001546000906001600160a01b03163314620001fa5760405162461bcd60e51b815260206004820152602360248201527f4f6e6c792061646d696e20636f6e74726163742063616e20697373756520746f60448201526235b2b760e91b606482015260840162000164565b6000858585600160009054906101000a90046001600160a01b031660405162000223906200028a565b62000232949392919062000454565b604051809103906000f0801580156200024f573d6000803e3d6000fd5b506001600160a01b03818116600090815260026020526040902080546001600160a01b03191695909116949094179093555090949350505050565b610bf480620004a083390190565b80356001600160a01b0381168114620002b057600080fd5b919050565b600060208284031215620002c857600080fd5b620002d38262000298565b9392505050565b634e487b7160e01b600052604160045260246000fd5b600082601f8301126200030257600080fd5b813567ffffffffffffffff80821115620003205762000320620002da565b604051601f8301601f19908116603f011681019082821181831017156200034b576200034b620002da565b816040528381528660208588010111156200036557600080fd5b836020870160208301376000602085830101528094505050505092915050565b600080600080608085870312156200039c57600080fd5b843567ffffffffffffffff80821115620003b557600080fd5b620003c388838901620002f0565b95506020870135915080821115620003da57600080fd5b50620003e987828801620002f0565b93505060408501359150620004016060860162000298565b905092959194509250565b6000815180845260005b81811015620004345760208185018101518683018201520162000416565b506000602082860101526020601f19601f83011685010191505092915050565b6080815260006200046960808301876200040c565b82810360208401526200047d81876200040c565b604084019590955250506001600160a01b03919091166060909101529291505056fe60806040523480156200001157600080fd5b5060405162000bf438038062000bf48339810160408190526200003491620002ac565b83836003620000448382620003d0565b506004620000538282620003d0565b5050506200006881836200007260201b60201c565b50505050620004c4565b6001600160a01b038216620000a25760405163ec442f0560e01b8152600060048201526024015b60405180910390fd5b620000b060008383620000b4565b5050565b6001600160a01b038316620000e3578060026000828254620000d791906200049c565b90915550620001579050565b6001600160a01b03831660009081526020819052604090205481811015620001385760405163391434e360e21b81526001600160a01b0385166004820152602481018290526044810183905260640162000099565b6001600160a01b03841660009081526020819052604090209082900390555b6001600160a01b038216620001755760028054829003905562000194565b6001600160a01b03821660009081526020819052604090208054820190555b816001600160a01b0316836001600160a01b03167fddf252ad1be2c89b69c2b068fc378daa952ba7f163c4a11628f55a4df523b3ef83604051620001da91815260200190565b60405180910390a3505050565b634e487b7160e01b600052604160045260246000fd5b600082601f8301126200020f57600080fd5b81516001600160401b03808211156200022c576200022c620001e7565b604051601f8301601f19908116603f01168101908282118183101715620002575762000257620001e7565b816040528381526020925086838588010111156200027457600080fd5b600091505b8382101562000298578582018301518183018401529082019062000279565b600093810190920192909252949350505050565b60008060008060808587031215620002c357600080fd5b84516001600160401b0380821115620002db57600080fd5b620002e988838901620001fd565b955060208701519150808211156200030057600080fd5b506200030f87828801620001fd565b60408701516060880151919550935090506001600160a01b03811681146200033657600080fd5b939692955090935050565b600181811c908216806200035657607f821691505b6020821081036200037757634e487b7160e01b600052602260045260246000fd5b50919050565b601f821115620003cb57600081815260208120601f850160051c81016020861015620003a65750805b601f850160051c820191505b81811015620003c757828155600101620003b2565b5050505b505050565b81516001600160401b03811115620003ec57620003ec620001e7565b6200040481620003fd845462000341565b846200037d565b602080601f8311600181146200043c5760008415620004235750858301515b600019600386901b1c1916600185901b178555620003c7565b600085815260208120601f198616915b828110156200046d578886015182559484019460019091019084016200044c565b50858210156200048c5787850151600019600388901b60f8161c191681555b5050505050600190811b01905550565b80820180821115620004be57634e487b7160e01b600052601160045260246000fd5b92915050565b61072080620004d46000396000f3fe608060405234801561001057600080fd5b50600436106100935760003560e01c8063313ce56711610066578063313ce567146100fe57806370a082311461010d57806395d89b4114610136578063a9059cbb1461013e578063dd62ed3e1461015157600080fd5b806306fdde0314610098578063095ea7b3146100b657806318160ddd146100d957806323b872dd146100eb575b600080fd5b6100a061018a565b6040516100ad919061056a565b60405180910390f35b6100c96100c43660046105d4565b61021c565b60405190151581526020016100ad565b6002545b6040519081526020016100ad565b6100c96100f93660046105fe565b610236565b604051601281526020016100ad565b6100dd61011b36600461063a565b6001600160a01b031660009081526020819052604090205490565b6100a061025a565b6100c961014c3660046105d4565b610269565b6100dd61015f36600461065c565b6001600160a01b03918216600090815260016020908152604080832093909416825291909152205490565b6060600380546101999061068f565b80601f01602080910402602001604051908101604052809291908181526020018280546101c59061068f565b80156102125780601f106101e757610100808354040283529160200191610212565b820191906000526020600020905b8154815290600101906020018083116101f557829003601f168201915b5050505050905090565b60003361022a818585610277565b60019150505b92915050565b600033610244858285610289565b61024f85858561030c565b506001949350505050565b6060600480546101999061068f565b60003361022a81858561030c565b610284838383600161036b565b505050565b6001600160a01b03838116600090815260016020908152604080832093861683529290522054600019811461030657818110156102f757604051637dc7a0d960e11b81526001600160a01b038416600482015260248101829052604481018390526064015b60405180910390fd5b6103068484848403600061036b565b50505050565b6001600160a01b03831661033657604051634b637e8f60e11b8152600060048201526024016102ee565b6001600160a01b0382166103605760405163ec442f0560e01b8152600060048201526024016102ee565b610284838383610440565b6001600160a01b0384166103955760405163e602df0560e01b8152600060048201526024016102ee565b6001600160a01b0383166103bf57604051634a1406b160e11b8152600060048201526024016102ee565b6001600160a01b038085166000908152600160209081526040808320938716835292905220829055801561030657826001600160a01b0316846001600160a01b03167f8c5be1e5ebec7d5bd14f71427d1e84f3dd0314c0f7b2291e5b200ac8c7c3b9258460405161043291815260200190565b60405180910390a350505050565b6001600160a01b03831661046b57806002600082825461046091906106c9565b909155506104dd9050565b6001600160a01b038316600090815260208190526040902054818110156104be5760405163391434e360e21b81526001600160a01b038516600482015260248101829052604481018390526064016102ee565b6001600160a01b03841660009081526020819052604090209082900390555b6001600160a01b0382166104f957600280548290039055610518565b6001600160a01b03821660009081526020819052604090208054820190555b816001600160a01b0316836001600160a01b03167fddf252ad1be2c89b69c2b068fc378daa952ba7f163c4a11628f55a4df523b3ef8360405161055d91815260200190565b60405180910390a3505050565b600060208083528351808285015260005b818110156105975785810183015185820160400152820161057b565b506000604082860101526040601f19601f8301168501019250505092915050565b80356001600160a01b03811681146105cf57600080fd5b919050565b600080604083850312156105e757600080fd5b6105f0836105b8565b946020939093013593505050565b60008060006060848603121561061357600080fd5b61061c846105b8565b925061062a602085016105b8565b9150604084013590509250925092565b60006020828403121561064c57600080fd5b610655826105b8565b9392505050565b6000806040838503121561066f57600080fd5b610678836105b8565b9150610686602084016105b8565b90509250929050565b600181811c908216806106a357607f821691505b6020821081036106c357634e487b7160e01b600052602260045260246000fd5b50919050565b8082018082111561023057634e487b7160e01b600052601160045260246000fdfea2646970667358221220ca59c8644ba763cd5cbd63b6a265eff1d3f37ff53ea4f84175e61ee697258e7b64736f6c63430008150033a26469706673582212205c55ddbbca15a44e4237ffe071efbe35f0bbf1872c52ee25fb9785437e9e122664736f6c63430008150033","linkReferences":{}},"methodIdentifiers":{"adminContract()":"c05c5e94","issueToken(string,string,uint256,address)":"f1f20931","owner()":"8da5cb5b","setAdminContract(address)":"63a812f9","token2Owner(address)":"cbc227c9"},"id":28}